:020000040800F2
:1000000028740020290300086F1600087F140008D8
:100010006D1600085F060008E11A000800000000E5
:10002000000000000000000000000000690200085D
:100030006106000800000000C5020008AF160008B5
:100040004303000843030008430300084303000878
:100050004303000843030008430300084303000868
:100060004303000843030008430300084303000858
:100070004303000843030008430300084303000848
:100080004303000843030008430300084303000838
:100090004303000843030008430300084303000828
:1000A0004303000843030008430300084303000818
:1000B0004303000843030008430300084303000808
:1000C00043030008430300084303000843030008F8
:1000D00043030008151A0008591A00089D1A000861
:1000E00043030008430300084303000843030008D8
:1000F00043030008430300084303000843030008C8
:1001000043030008430300084303000843030008B7
:1001100043030008430300086D1700084303000869
:100120004303000843030008430300084303000897
:100130004303000843030008430300084303000887
:100140004303000843030008430300084303000877
:100150004303000843030008430300084303000867
:100160004303000843030008430300084303000857
:100170004303000843030008430300080000000095
:10018000430300084303000800F002F800F05CF8A5
:100190000AA090E8000C82448344AAF10107DA45E2
:1001A00001D100F051F8AFF2090EBAE80F0013F0D8
:1001B000010F18BFFB1A43F00103184778540000E1
:1001C000985400000A444FF0000C10F8013B13F063
:1001D000070408BF10F8014B1D1108BF10F8015BA0
:1001E000641E05D010F8016B641E01F8016BF9D193
:1001F00013F0080F1EBF10F8014BAD1C0C1B09D1EA
:100200006D1E58BF01F801CBFAD505E014F8016B5B
:1002100001F8016B6D1EF9D59142D6D370470000ED
:100220000023002400250026103A28BF78C1FBD8FF
:10023000520728BF30C148BF0B6070471FB505F09B
:1002400093F81FBD10B510BD00F0D0F91146FFF7AF
:10025000F5FF02F0C1FC00F0EEF903B4FFF7F2FF86
:1002600003BC00F0F5F900002C4B19680868B0E8F1
:10027000F04F80F30988BFF36F8F4FF0000080F3D9
:10028000118870470000000008480068006880F38B
:1002900008884FF0000080F3148862B661B6BFF39F
:1002A0004F8FBFF36F8F00DF00BF00BF08ED00E08E
:1002B000DFF80C00016841F470010160704700BF75
:1002C00088ED00E0EFF30980BFF36F8F134B1A68DE
:1002D0001EF0100F08BF20ED108A20E9F04F1060CB
:1002E00009B44FF0500080F31188BFF34F8FBFF374
:1002F0006F8F03F0BFFD4FF0000080F3118809BC41
:1003000019680868B0E8F04F1EF0100F08BFB0EC95
:10031000108A80F30988BFF36F8F70470C000020AC
:10032000EFF30580704700000948804709480047FF
:10033000FEE7FEE7FEE7FEE7FEE7FEE7FEE7FEE795
:10034000FEE7FEE704480549054A064B70470000F2
:100350005D17000889010008286E0020287400201D
:10036000287000202870002053EA020C00F06980F9
:100370002DE9F04B4FF00006002B1FBFB3FA83F5B9
:1003800003FA05F424FA05F65E4012BF1643B2FAEA
:1003900082F502FA05F4C5F120051EBF22FA05FC1C
:1003A00044EA0C04203556EA044C4FEA144418BFC2
:1003B000641C4FF000084FF00009904271EB030CF1
:1003C00039D3002919BFB1FA81F701FA07F6B0FA5B
:1003D00080F700FA07F6C7F120071EBF20FA07FCD6
:1003E00046EA0C062037B6FBF4FCA7EB0507103FE6
:1003F00007F01F0BCBF120060CFA0BFB2CFA06F6CC
:1004000044BFB3460026202FA4BF5E464FF0000B2A
:100410005BEA060C08BF4FF0010B19EB0B09ABFBB5
:10042000027C48EB0608C01B06FB02CC0BFB03CC8E
:1004300071EB0C01C1E70B46024641464846BDE858
:10044000F08B13B54FF000004FF00001AFF30080C8
:10045000BDE81C407047032A40F2308010F0030CC6
:1004600000F0158011F8013BBCF1020F624498BF07
:1004700011F801CB00F8013B38BF11F8013BA2F1A4
:10048000040298BF00F801CB38BF00F8013B11F01F
:10049000030300F02580083AC0F0088051F8043BBF
:1004A000083A51F804CBA0E80810F5E7121D5CBF2C
:1004B00051F8043B40F8043BAFF30080D20724BF5F
:1004C00011F8013B11F801CB48BF11F8012B24BFF3
:1004D00000F8013B00F801CB48BF00F8012B704742
:1004E00010B5203AC0F00B80B1E81850203AA0E8CF
:1004F0001850B1E81850A0E81850BFF4F5AF5FEA03
:10050000027C24BFB1E81850A0E8185044BF18C9B5
:1005100018C0BDE810405FEA827C24BF51F8043B5C
:1005200040F8043B08BF7047D20728BF31F8023BB0
:1005300048BF11F8012B28BF20F8023B48BF00F844
:10054000012B704702F0FF0343EA032242EA024212
:1005500000F02CB84FF0000200B5134694469646C2
:10056000203922BFA0E80C50A0E80C50B1F12001C6
:10057000BFF4F7AF090728BFA0E80C5048BF0CC074
:100580005DF804EB890028BF40F8042B08BF7047D2
:1005900048BF20F8022B11F0804F18BF00F8012B44
:1005A00070477047704770474FF000020429C0F051
:1005B000128010F0030C3FF4CFAFCCF1040CBCF16F
:1005C000020F18BF00F8012BA8BF20F8022BA1EBE7
:1005D0000C01FFF7C1BF5FEAC17C24BF00F8012B0B
:1005E00000F8012B48BF00F8012B7047754600F05A
:1005F0002BF8AE4605006946534620F007008546B5
:1006000018B020B5FFF79EFEBDE820404FF0000671
:100610004FF000074FF000084FF0000B21F00701EA
:10062000AC46ACE8C009ACE8C009ACE8C009ACE82D
:10063000C0098D46704710B50446AFF300802046D0
:10064000BDE81040FFF709BE00487047C86D0020A4
:1006500001491820ABBEFEE7260002007047FEE706
:10066000704703F0D3B972B6FEE703F0EFB9F0B507
:100670000346002014E0D3E901546D1CB5FBF4F6E9
:1006800004FB16561F68BE4201D10020F0BDB5FB29
:10069000F4F604FB16545C60DE680D5C401C3555B6
:1006A0009042E8D3F0BD002343600360C0E902211B
:1006B0007047000070B5002311E000BFD0E900458D
:1006C000A54201D1002070BD8568641CB4FBF5F61D
:1006D00005FB16440460C5682C5DCC545B1C93423A
:1006E000ECD3D8B270BD00002DE9F84FDFF8BCA103
:1006F0000022012503264FF00F090AF1040BAAF18D
:10070000040E00BF0B6805FA02F42340A34270D127
:100710000F7907F00307012F01D0022F16D1876848
:100720004FEA420806FA08FC27EA0C07D1F80CC089
:100730000CFA08FC4CEA070CC0F808C04768A7434D
:100740000C79C4F3001494403C4344600C79E443B6
:10075000A4070AD0C4684FEA420C06FA0CF7BC435F
:100760008F6807FA0CF72743C7600C7904F003047D
:10077000022C12D1D40800EB840CDCF8204057077F
:10078000FF0E09FA07F824EA0804D1F8108008FAE5
:1007900007F848EA0408CCF8208004684FEA420CC5
:1007A00006FA0CF7BC430F7907F0030707FA0CF7BA
:1007B000274307604C6814F4403F70D03C4C2768D6
:1007C00047F480472760246822F0030704F480443C
:1007D0000094384C07EB040CDCF8084897074FEA04
:1007E000177809FA08F7BC43334FB84202D1002703
:1007F00024E054E0314FB84201D101271EE0304FD0
:10080000B84201D1022719E02E4FB84201D1032787
:1008100014E02D4FB84201D104270FE02B4FB8420E
:1008200001D105270AE02A4FB84201D1062705E089
:10083000284FB84201D1072700E0082707FA08F738
:100840002743CCF80878DAF800405746D1F804C0BE
:100850009C435FEACC2C00D51C433C60DBF8004095
:100860005F46D1F804C09C435FEA8C2C00D51C4342
:100870003C60DEF800407746D1F804C09C435FEA54
:100880008C3C00D51C433C60084F083F3C68D1F8C5
:1008900004C09C435FEACC3C00D51C433C60521C26
:1008A000102AFFF42FAFBDE8F88F0000083C01408C
:1008B0004438024000300140000002400004024081
:1008C00000080240000C02400010024000140240E8
:1008D00000180240001C0240014880687047000078
:1008E000000000200248816802781144816070474E
:1008F000000000200B4810B5016841F40071016050
:10090000016841F480610160016841F48071016017
:10091000032000F09FF80F2000F006F800F050F8D8
:10092000002010BD003C024030B505461F4887B08E
:100930000024016841F010010160006806A900F080
:100940001000009001A800F031F90498A8B100F05F
:100950004DF940001649174AB0FBF1F11648491EFF
:10096000026040F2E732C0E90324C0E90114846167
:1009700000F048FB040003D015E000F037F9E9E788
:100980000D4800F077FB04000DD1362000F034F85C
:10099000102D07D200222946362000F03BF80748E8
:1009A000056000E0012407B0204630BD4038024019
:1009B00040420F00001000406C4D00200400002059
:1009C0000C4882B0016841F480410160006800F485
:1009D000804000900748001F016841F0805101608D
:1009E0000068002200F0805000900F21901E02B09D
:1009F00000F010B844380240002809DB00F01F0264
:100A0000012191404009800000F1E020C0F8001170
:100A100070470000F0B40E4B1B680C46C3F3022372
:100A2000C3F10705042D00D90425191D072901D29A
:100A3000002300E0DB1E012606FA05F1491E2140D5
:100A400099409E40761E16403143F0BC01F049B8F3
:100A50000CED00E0064900F0070208684FF6FF03BE
:100A6000184040EA0220034A104308607047000023
:100A70000CED00E00000FA052DE9F0470E460500F8
:100A800065D0DFF81481D8F80000F7B200F0070055
:100A9000B04207D288F80070D8F8000000F00700D4
:100AA000B04254D128683D4C810712D5400703D588
:100AB000206840F4E05020602878000703D52068C3
:100AC00040F4604020602068A96820F0F0000843EE
:100AD00020602878C0072DD030496868083901287F
:100AE00012D0022813D0032811D0096889070029E1
:100AF0002DDA216821F0030101432160FFF7ECFEAC
:100B0000814641F2883A0EE009688903EFE70968F7
:100B10008901ECE7FFF7E0FEA0EB0901514502D99E
:100B20000320BDE8F0872068696800F00C00B0EB96
:100B3000810FEFD1D8F80010404601F00701B14213
:100B400007D90770006800F00700B04201D001200B
:100B5000E7E72878400705D52068E96820F4E050E9
:100B6000084320602878000706D52068296920F40A
:100B7000604040EAC100206000F058F82168084A4F
:100B8000C1F30311515CC84006490860064800687B
:100B9000FFF7CAFE0020C4E7003C024008380240CC
:100BA000725300088C000020040000200F22026015
:100BB0000C4A136803F003034360136803F0F00367
:100BC0008360136803F4E053C36012684FF4E0538A
:100BD00003EAD20202610448006800F007000860DE
:100BE0007047000008380240003C024004480549B4
:100BF00000680968044AC1F38221515CC84070470B
:100C00008C0000200838024082530008044805493F
:100C100000680968044AC1F34231515CC84070471A
:100C20008C0000200838024082530008154810B597
:100C3000006810F00C02144813D01449042A0FD095
:100C4000082A0ED10F4C241F2268236802F03F02AD
:100C50005B0207D52068C0F38810A0FB010106E005
:100C6000084610BD2168C1F38811A1FB00010023D3
:100C7000FFF77AFB2168C1F30141491C4900B0FB31
:100C8000F1F010BD083802400024F40040787D01E6
:100C90002DE9F84F04006ED02078DFF84C93C007A0
:100CA000A9F104054AD009F104000168C1F38101EA
:100CB000012908D00068C0F3810002280AD1D9F8C0
:100CC0000000400206D52868800337D560680028F8
:100CD000E1D033E06068B0F5803F10D0B0F5A02FD0
:100CE000286810D020F480302860286820F4802004
:100CF00028606068A8B1FFF7EFFD06460DE02868A0
:100D000040F48030F4E740F480202860F7E700BF2B
:100D1000FFF7E2FD801B642873D828688003F7D5AD
:100D20000CE0FFF7D9FD064605E000BFFFF7D4FD54
:100D3000801B6428F0D828688003F7D42078DFF877
:100D4000AC8280074FF0000A3ED5A748001D01681D
:100D500011F00C0F08D00068C0F3810002280BD1FD
:100D6000D9F80000400207D42868800716D5E0684B
:100D7000012800D112E033E1E068B8B10120C8F8E1
:100D80000000FFF7A9FD064605E000BFFFF7A4FD40
:100D9000801B0228C0D828688007F7D528682169F9
:100DA00020F0F80040EAC10028600DE0C8F800A07B
:100DB000FFF792FD064604E0FFF78EFD801B022838
:100DC0001FD828688007F7D42078000722D5864FDF
:100DD00087486169703771B101210160FFF77CFDBF
:100DE000064604E0FFF778FD801B022809D8386822
:100DF0008007F7D50EE0C0F800A0FFF76DFD0646AE
:100E000005E082E0FFF768FD801B02287DD8386886
:100E10008007F7D42078400768D5DFF8CCB10027E9
:100E20000BF13C0BDBF80000C0000BD4DBF800102A
:100E300041F08051CBF80010DBF80000012700F0F2
:100E4000805000906B4E3068C00510D4306840F47C
:100E500080703060FFF740FD009005E0FFF73CFD3B
:100E60000099401A022850D83068C005F6D55E4E69
:100E7000A0686C3601280FD00528306810D020F00B
:100E800001003060306820F004003060A068B8B124
:100E9000FFF722FD00900FE0306840F00100F4E71A
:100EA00040F004003060F7E7FFF716FD0099411AA3
:100EB00041F28830814266D830688007F4D50EE070
:100EC000FFF70AFD009007E0FFF706FD0099411AC1
:100ED00041F28830814256D830688007F4D42FB16F
:100EE000DBF8001021F08051CBF80010A069C8B3E6
:100EF0003D49091D0968C1F3810102294AD0022830
:100F0000504607D0C8F8600000E03CE0FFF7E4FC82
:100F100004463BE04746C8F86000FFF7DDFC0646A4
:100F200005E000BFFFF7D8FC801B02282BD82868FB
:100F30008001F7D4D4E907010843A16A2E4A490881
:100F400002EB0141626A41EA8211084394F82C10D5
:100F500040EA0161C9F8001001203866FFF7BCFCC7
:100F6000044606E03EE000BFFFF7B6FC001B022887
:100F700009D828688001F7D534E000BFFFF7ACFC42
:100F8000001B022802D90320BDE8F88F28688001E1
:100F9000F4D427E00128F7D0D9F80000E26900F482
:100FA000800191421CD1226A00F03F01914217D189
:100FB00047F6C071626A0140B1EB821F10D1A26A8C
:100FC0004FF0FF3300F4403103EB5202B1EB024F1C
:100FD00006D194F82C1000F07060B0EB016F01D0D6
:100FE0000120D1E70020CFE704380240000047424B
:100FF000800E4742007000400000FFFF70477047BE
:101000007047000010B5040003D094F83D0010B103
:101010000EE0012010BD002084F83C00204600F0C6
:1010200017FCA06C08B91148A06401462046884707
:10103000022084F83D00211D206800F09DFB012066
:1010400084F8460084F83E0084F83F0084F84000AD
:1010500084F8410084F8420084F8430084F8440096
:1010600084F8450084F83D00002010BD7110000890
:101070007047000090F83D10012901D00120704711
:10108000022180F83D100168CA6842F00102CA607E
:1010900000681149884214D0B0F1804F11D00F4937
:1010A00088420ED00E4988420BD00E49884208D0A3
:1010B0000D49884205D00D49884202D00C4988422A
:1010C00004D1816801F00701062903D0016841F0CD
:1010D0000101016000207047000001400004004051
:1010E00000080040000C00400004014000400140A6
:1010F000001800407047704770472DE9F0410446E2
:101100000068C66805694FF00007A90715D5B10743
:1011100013D5F91E016101202077206880698007BE
:1011200002D0D4F8901005E0D4F8981020468847F3
:10113000D4F89C10204688472777680718D5700791
:1011400016D521686FF0040008610220207720681E
:10115000806910F4407F02D0D4F8901005E0D4F8F4
:10116000981020468847D4F89C1020468847277757
:10117000280717D5300715D521686FF008000861DA
:10118000042020772068C069800702D0D4F890102E
:1011900005E0D4F8981020468847D4F89C102046E3
:1011A00088472777E80618D5F00616D521686FF02E
:1011B00010000861082020772068C06910F4407F83
:1011C00002D0D4F8901005E0D4F898102046884753
:1011D000D4F89C10204688472777E80709D0F00705
:1011E00007D021686FF001000861D4F88010204614
:1011F0008847280609D5300607D521686FF080009A
:101200000861D4F8B01020468847680609D57006F2
:1012100007D521686FF040000861D4F88810204697
:101220008847A8060BD5B00609D521686FF02000C5
:1012300008612046D4F8A810BDE8F0410847BDE891
:10124000F08170477047704700680349884201D1B8
:10125000FFF748BB70470000001000407047704720
:1012600070477047704770477047704770B504000B
:1012700004D094F84100002510B10DE0012070BDAC
:1012800084F84050204600F019FB206F08B914483C
:101290002067014620468847242084F841002068C2
:1012A000C16821F40051C160204600F02DFB206888
:1012B000016921F4904101612068416921F02A010E
:1012C00041612068C16841F40051C160656420201B
:1012D00084F8410084F842006563002070BD00007E
:1012E000E5120008F0B587B0044614216846FFF700
:1012F00031F93D4B276800223C490224032507268B
:101300003B489F4221D1394B14331F6847F01007E7
:101310001F601B6803F0100305930B6843F0010383
:101320000B60096802AB01F0010105916902CDE98A
:10133000001483E864006946FFF7D6F9002205210E
:101340002520FFF767FB252024E0284BDFF8A4C009
:101350001033674522D11F6847F400371F601B68B0
:1013600003F4003305930B6843F001030B60096835
:1013700002AF01F0010105910C21CDE9001487E8CD
:1013800064006946FFF7B0F9002205212620FFF727
:1013900041FB2620FFF730FB07B0F0BD164887421F
:1013A000FAD1186840F480201860186800F4802092
:1013B0000590086840F002000860086802AF00F07D
:1013C000020005904FF44060CDE9000487E8640016
:1013D00069460A48FFF788F9002205212720FFF710
:1013E00019FB2720D6E700000010014030380240EA
:1013F0000000024000440040004800400004024059
:1014000010B500233AB190F84140202C09D090F853
:1014100041400CB324E0416C41F0200141640120C3
:1014200010BD0D291CD2DFE801F007090B0D0F11CB
:1014300013151B1B1B222400826416E0C26414E0F7
:10144000026512E0426510E082650EE0C2650CE0C4
:1014500002660AE0426608E00B2908D00C2908D091
:10146000416C41F0200141640123184610BD026720
:10147000FBE74267F9E77047704770477047FEE740
:1014800010B5FEF74DFF002800D0012010BD000070
:1014900038B500204FF41654234603220121009052
:1014A00000F014FD00F02EFB002322460221184616
:1014B00000F0E2FE00F04AFD0A4A00210A4801F06D
:1014C000D9FB0A4C074A002120602432084801F069
:1014D000D1FB044A606048320021064801F0CAFB93
:1014E000A06038BD8C530008311600089000002021
:1014F000A5160008ED150008114808B5016841F06F
:1015000004010160016801F004010091016841F0EB
:1015100080010160016801F080010091016841F0E3
:1015200001010160016801F001010091016841F0D1
:1015300002010160006800F00200009008BD000098
:10154000303802400C4810B50A4901604FF4E131CF
:101550004160002181600C22C160C0E904128161F8
:10156000C161FFF783FE002803D0BDE81040FFF7FC
:101570007AB810BD00100140044C00200C4810B592
:101580000A4901604FF4E1314160002181600C2281
:10159000C160C0E904128161C161FFF767FE0028E4
:1015A00003D0BDE81040FFF75EB810BD0044004016
:1015B0007C4C00200C4810B50A4901604FF4E13121
:1015C0004160002181600C22C160C0E90412816188
:1015D000C161FFF74BFE002803D0BDE81040FFF7C4
:1015E00042B810BD00480040F44C002086B01422E0
:1015F0000E4901A8FEF774FF642501AC4FF47A761A
:1016000001AB0A2200210120009501F09BF8002186
:1016100034F81100401C24F81100491C89B20A2931
:10162000F6D3304601F0EBFAEAE70000F853000881
:1016300000F05CFEFCE7000038B5094CA0680068CB
:101640000168890608D540688DF8000001226946C6
:101650000448FFF70CF8F1E703480068804738BDFD
:1016600058020020B86B002094020020FEE7FEE73D
:1016700038B5094CA06800680168890608D540683B
:101680008DF80000012269460448FEF7F0FFF1E7FB
:1016900003480068804738BD7C010020E84F0020E7
:1016A000AC0100202DE9104001F0B4F8FCE710B5C2
:1016B0004FF0E020006903F02FFC012803D0BDE8C3
:1016C000104003F081B810BD30B593B030216846AA
:1016D000FEF740FF14210CA8FEF73CFF1D48002533
:1016E000016841F080510160006800F08050119065
:1016F0001948016841F4804101600068022400F447
:1017000080401190012003901020049000940694D2
:101710000820CDE90750A820CDE9090404200B904A
:101720006846FFF7B5FA08B172B6FEE70CA90F20BC
:1017300081E831004FF4A0500F904FF4805010908A
:1017400005210CA8FFF798F9002801D072B6FEE732
:1017500013B030BD403802400070004002480168BC
:1017600041F470010160704788ED00E00148FFF727
:10177000C4BC00006C4D0020F0B50268294C2A4D15
:101780002A4E2B4F2B4B4FF0804CA04209D0604586
:1017900007D0A84205D0B04203D0B84201D0984249
:1017A00004D122F0700E4A6842EA0E02A0421BD019
:1017B000604519D0A84217D0B04215D0B84213D016
:1017C000984211D01C4DA8420ED01C4DA8420BD0FF
:1017D0001B4DA84208D01B4DA84205D01A4DA84267
:1017E00002D01A4DA84203D122F44075CA682A4398
:1017F0004D6922F080022A4302608A68C2620A6848
:101800008262A04201D0984201D10969016301219D
:1018100041610169C90703D0016921F0010101613A
:10182000F0BD00000000014000040040000800403E
:10183000000C004000040140004001400044014011
:101840000048014000180040001C004000200040FB
:101850000D4940F8801F0D4941600D4981600D49D7
:10186000C1600D4901610D4941610D4981610D4919
:10187000C1610D4901620D4941620D4981620D4905
:10188000C1620D4901637047491200085D120008EA
:101890005F12000861120008F7100008F910000834
:1018A000431200084512000847120008F51000080E
:1018B000FF0F000801100008FD0F000809498164AE
:1018C0000949C164094901650949416509498165B9
:1018D0000949C16509490166094941660949C16665
:1018E000704700007D1400087B140008791400087C
:1018F000771400086B1200086512000869120008CE
:10190000671200086312000870B504460068016998
:10191000E26821F44051114301612169A068E26944
:1019200008436169114308432168CA6849F20C639E
:101930009A430243CA6020684169A26921F4407158
:101940001143416131492068884202D030498842C0
:1019500002D1FFF75BF901E0FFF748F9E2690023E4
:10196000192164253226B2F5004F626828D0A0FB09
:101970000101930F9200FEF7F7FC0146B0FBF5F072
:101980006FF01802504301EB800006EB0010B0FB33
:10199000F5F000F0F002B1FBF5F002EB0012B1FB44
:1019A000F5F06FF01803584301EB800006EB0010D0
:1019B000B0FBF5F000F00F0021681044886070BDA6
:1019C000A0FB010192185B41FEF7CEFC0146B0FB83
:1019D000F5F00201B1FBF5F06FF01803584301EB8D
:1019E000800006EBC000B0FBF5F000F0F80002EB61
:1019F0004002B1FBF5F0584301EB800006EBC0005C
:101A0000B0FBF5F000F00700D6E700000010014041
:101A10000014014038B50F4C20680068800606D5D8
:101A2000616D2046884721686FF0200008602068BB
:101A30000168090703D541680168416800910068A1
:101A4000400606D5E16C0348884721686FF04000E6
:101A5000086038BD044C002038B50F4C2068006881
:101A6000800606D5616D2046884721686FF020000A
:101A7000086020680168090703D54168016841686A
:101A800000910068400606D5E16C0348884721684C
:101A90006FF04000086038BD7C4C002038B50F4C1A
:101AA00020680068800606D5616D20468847216859
:101AB0006FF02000086020680168090703D54168BD
:101AC0000168416800910068400606D5E16C034852
:101AD000884721686FF04000086038BDF44C002052
:101AE000FEE70907090E002804DB00F1E02080F87A
:101AF0000014704700F00F0000F1E02080F8141D82
:101B00007047000070B5064D00242878012802D0E7
:101B10000624204670BD2869804700202870F8E719
:101B20008C01002070B50C460988002505292FD1AD
:101B3000417840F2CF760A0281781143C278491C7D
:101B40001302027989B21A43531EB34220D20023F2
:101B50002380012300F8013B2688761C2680560747
:101B600003D003EBD203DEB201E0C2F3C70600F8F4
:101B7000016B23885B1C2380002300F045FF18B114
:101B800001F0B9FC054604E020883044208000E0E4
:101B90000325284670BD70B50C4609880025052927
:101BA0002FD1417840F2CF760A0281781143C27872
:101BB000491C1302027989B21A43531EB34220D240
:101BC00000232380022300F8013B23885B1C238031
:101BD000530704D0012303EBD203DEB201E0C2F3CA
:101BE000C70600F8016B23885B1C238000F05CFFB4
:101BF00018B101F080FC054604E0208830442080C4
:101C000000E00325284670BD70B50C460988002603
:101C1000052928D1417805790A0281781143C278D3
:101C2000491C45EA02256A1E89B27C2A1BD800227B
:101C30002280032200F8012B22880023521C2280DC
:101C40006A0000F8012B2288521C22802A4600F0EC
:101C500065FF18B101F04FFC064605E0208800EB57
:101C60004500208000E00326304670BD70B50C466C
:101C700009880026052927D1417805790A0281784B
:101C80001143C278491C45EA02256A1E89B27C2AA2
:101C90001AD200222280042200F8012B2288521C32
:101CA00022806A0000F8012B2288521C22802A46DA
:101CB00000F06CFF18B101F01EFC064605E020881C
:101CC00000EB4500208000E00326304670BD2DE982
:101CD000F0410446088800270D460A2842D3607860
:101CE00026790102A078227A0843401C1FFA80F866
:101CF000E07846EA00266079731E0102A079084365
:101D0000401C81B2E0797C2B42EA0022607A28D81C
:101D10003AB3792A25D8B0EB420F22D1012304F13E
:101D20000A0000F0FBFE98B90021298017212170DC
:101D30002988601C491C2980710000F8011B298832
:101D40000023491C29803246414600F0E7FE18B1C5
:101D500001F0D1FB074605E0288800EB460028800B
:101D600000E003273846BDE8F081000070B5064C5E
:101D70000D4606492288401CFEF76DFB2088401C5A
:101D80002880002070BD000038020020F84F00209D
:101D900038B50988002405290BD141780A028178D9
:101DA0001143491C027989B21AB9C278FF2A03D0BB
:101DB00012B10324204638BD00228DF80120C078DE
:101DC000FF280CD08DF8002001231A46684600F049
:101DD0001BFE0028EED001F08EFB0446EAE701204E
:101DE0008DF80000F0E710B509880024052902D01D
:101DF0000324204610BD417801230A028178C01CCB
:101E00001143491C89B21A4600F088FE0028F0D020
:101E100001F071FB0446ECE72DE9F0410D4609881D
:101E20000024052926D9417843790A028178114393
:101E3000491C8EB2C178027942EA0122510704D0CE
:101E4000012101EBD201C9B201E0C2F3C701571E63
:101E5000B7F5F66F0ED299420CD101233146801DA1
:101E600000F0D2FD18B101F046FB044603E0052066
:101E7000288000E003242046BDE8F08170B50D46BF
:101E80000988002406291DD341780A02817811436C
:101E9000C278491C1302027989B21A434379561E4B
:101EA000772E0FD85606360E9E420BD10123801D89
:101EB00000F034FE18B101F01EFB044603E00520DB
:101EC000288000E00324204670BD00002DE9F04189
:101ED0001D46069B1746064629B1F72903D8134C21
:101EE000084621710EB102251BE0114921611149FB
:101EF00061611149E1601149A1610021E16110496D
:101F00002162104961621049A1622A46394600F0F7
:101F1000D9FC050005D102F08BFA28B166710120C9
:101F200020702846BDE8F0810325FAE78C010020E7
:101F3000C9290008ED2900085D29000811290008B9
:101F4000B1450008394600081146000870B5064D35
:101F500000246878012802D00624204670BD6869F4
:101F6000804700206870F8E770020020F8B50E4640
:101F70000546002402F02AFA28BB3088022823D321
:101F8000684601F035FC009841780A0281781143D7
:101F9000C278491C1302027989B21A43500704D04F
:101FA000012000EBD200C0B201E0C2F3C7005AB179
:101FB0006B78834208D10023A81C00F0DFFA10B12F
:101FC00001F099FA044600E003242046F8BDF8B574
:101FD0000E460546002402F0F9F920BB308802289D
:101FE00022D3684601F004FC009841780A02817807
:101FF0001143C278491C1302027989B21A4350076F
:1020000004D0012000EBD200C0B201E0C2F3C7004F
:1020100052B16B78834207D1A81C00F0EDFA10B1E1
:1020200001F069FA044600E003242046F8BDF8B543
:102030000E460546002402F0C9F9F8B93088022896
:102040001BD3684601F0D4FB009841780A028178DE
:102050001143C278491C1302027989B21A430CD089
:102060006878B0EB420F08D10023A81C00F002FBF7
:1020700020B101F040FA044600E003242046F8BDF8
:10208000F8B50E460546002402F0A0F9F0B93088F4
:1020900002281AD3684601F0ABFB009841780A0287
:1020A00081781143C278491C1302027989B21A431C
:1020B0000BD06878B0EB420F07D1A81C00F00EFBE4
:1020C00020B101F018FA044600E003242046F8BDD0
:1020D000F8B50D460646002402F078F968BB28885A
:1020E00002282CD3684601F083FB009841780579DB
:1020F0000A0281781143491C8FB2C17845EA012553
:1021000041790A0281791143C279491C1302027A8A
:1021100089B21A437378B3EB450F0FD101230A300C
:1021200000F0A8FA30B900232A463946B01C00F066
:10213000A1FA10B101F0DFF9044600E003242046C3
:10214000F8BD38B50988002405290BD141780A0269
:1021500081781143491C027989B21AB9C278FF2AE1
:1021600003D012B10324204638BD00228DF801208F
:10217000C078FF280CD08DF8002001231A4668464D
:1021800000F0FCF90028EED001F0B5F90446EAE7CA
:1021900001208DF80000F0E710B50988002405291A
:1021A00002D00324204610BD417801230A02817821
:1021B000C01C1143491C89B21A4600F05BFA002882
:1021C000F0D001F098F90446ECE738B505460888E8
:1021D0000024052802D002F0F9F818B3684601F08F
:1021E00007FB68782A790102A8780843401C81B26D
:1021F000E87842EA002200985307457904D0012389
:1022000003EBD203DBB201E0C2F3C70352B1AB422E
:1022100008D10123801D00F0B1F920B101F06BF964
:10222000044600E00324204638BD38B50888002461
:10223000052802D002F0CAF8D0B1684601F0D8FAF9
:10224000009841780A0281781143C278491C130230
:10225000027989B21A434379B3EB420F08D10123C3
:10226000801D00F007FA20B101F045F9044600E0B6
:102270000324204638BD000070B515460E4608B14F
:1022800002251FE0124C11481A4660611148A061F6
:10229000114820611148E06100202062104860620E
:1022A0001048A0621048E0622946304600F0C2F8AB
:1022B000050007D101F02EFF30B1012084F80100A4
:1022C00001F09CFA284670BD0325F9E73D2500087A
:1022D0007002002061250008CD2400088124000838
:1022E0009542000861430008FD420008F8B5504CD3
:1022F000607818B1032801D00620F8BD684601F0C7
:10230000EBFE012810D1BDF8000004281FD004DC2A
:10231000012807D0022807D107E0082856D0102846
:1023200002D15FE00320607080E0414AE369083237
:10233000111D901F984728B9A0786179884201D172
:10234000042001E001203BE001F0F0FE6EE0E168D6
:1023500001220878E0702271C20902D04878207109
:102360002BE0334F0026303717F8361009B381427F
:1023700020D10120207002F029F880B101F0A8F9E5
:102380002081012507EBC60665712949726808316D
:10239000E06890476D1C2071102DF5DD07E007EB1C
:1023A000C600234942680831E06890472071002048
:1023B000207002E0761C102ED6DB207918B10220A6
:1023C000A0711020C0E701F0F3F92DE018480C309F
:1023D00001F00EFA01F07CF9D4E9031302466079AA
:1023E000984723E01248A5790C3001F001FA25B195
:1023F000012D0AD0022D17D10FE001F069F9024634
:102400006079E16801F0ECF90EE001F061F9024653
:102410006079E16801F0DCF906E001F059F9024663
:102420006079E16801F0CCF901F07EFA0020F8BD96
:10243000700200202DE9F04116460D4607460024A3
:10244000FEF70FF9334608222946384601F090FE80
:1024500001280DD1B5F5964F01D9232003E0074996
:102460006800B1FBF0F080B201F0F4FE012800D06A
:102470000324FEF7FAF82046BDE8F081A07F17009C
:102480002DE9F0411646884607460025FEF7E9F893
:102490000C4C2089042804D321890B4801F002F94F
:1024A00028B10525FEF7E1F82846BDE8F081064889
:1024B000007838702089C01E30800348401CC8F85E
:1024C0000000EFE720030020C56C00202DE9F0415B
:1024D000002590460F460646102802D90220BDE886
:1024E000F081FEF7BEF8134CA078012804D0052532
:1024F000FEF7BBF82846F2E7781E0127E060E78088
:102500000670E28802EB0801E180E18801F0CAF878
:10251000E188094A5318491CE1801870010AE088D3
:102520000244401CE080117067700121002001F01E
:1025300071F9DDE720030020C86B002010B5FEF71D
:1025400090F80649002088700146012001F062F9E8
:1025500001F0CAF9BDE81040FEF787B8200300205B
:1025600010B5FEF77EF80021084601F053F901F09E
:102570008FF9BDE81040FEF778B800002DE9F0476C
:102580000C469046012106464FF0000901EBD805A4
:1025900001F082F81649641E01EBC0071548083F98
:1025A0004188A0B200EB0802402A1BD8401AC0F3B1
:1025B000CC0400F0070A0AE03819641C16F8013B45
:1025C000A4B20822514602F070F86D1EADB2012D82
:1025D000F2D818F0070207D033783819514602F0C4
:1025E00064F801E04FF001094846BDE8F0870000BB
:1025F00038510020480200202DE9F0470C46904653
:10260000012106464FF0000901EBD80501F044F81E
:102610001649641E01EB40071548BF1E0188A0B291
:1026200000EB0802102A1BD8401AC0F3CC0400F0BB
:10263000070A0AE03819641C16F8013BA4B2082204
:10264000514602F032F86D1EADB2012DF2D818F0ED
:10265000070207D033783819514602F026F801E016
:102660004FF001094846BDE8F087000018510020EE
:10267000480200202DE9F04115460F460446002689
:1026800001F00AF800EBC00101EB001011497F1EB8
:1026900001EBC0011048C839C288B8B24319642B95
:1026A00013D8801A80B20DE014F8012B120221F821
:1026B000102014F8013B1A4321F81020401C6D1E15
:1026C00080B2ADB2002DEFD100E001263046BDE86A
:1026D000F0810000385E0020480200202DE9F04122
:1026E00015460F460446002600F0D6FF00EBC00159
:1026F00001EB001011497F1E01EBC0011048C839E1
:102700008288B8B24319642B13D8801A80B20DE0C6
:1027100014F8012B120221F8102014F8013B1A437F
:1027200021F81020401C6D1E80B2ADB2002DEFD1FB
:1027300000E001263046BDE8F0810000B8510020DD
:10274000480200202DE9F8438046002408981F46DF
:1027500015460E46B8F1100F02D90220BDE8F883E5
:1027600001F03AFEB8B1684601F042F8404601F087
:10277000EBF80098102100F8011B310A00F8011B4A
:10278000290A00F8016B00F8031B690000F8025CDD
:1027900000F8011C0FE00520E0E700BF37F8140047
:1027A000010A009800F8011B009017F81410641C2F
:1027B00000F8011BA4B20090A542EFD8062000EB60
:1027C000450080B201F0CCF8082001F0AFFC00F029
:1027D00001F8C3E738B50024601E00900C4823467A
:1027E00001224FF4F071406801F0F2FB20280CD078
:1027F000402805D0802805D0B0F5807F05D103E0C2
:10280000042402E0032400E00624204638BD000032
:102810005002002038B52A4C207808B1062038BD77
:10282000684601F0E9FD012848D19DF80000012823
:1028300044D0022802D0042840D10FE0204AA369E6
:10284000921D911CC81F9847C0BB607821798842AF
:1028500000D098BB042001F0F7FD2FE0A068012113
:10286000174B0278A270E17000212C3313F831501D
:1028700065B1954207D103EBC1014A681049891D32
:102880009047E07002E0491C1029EFDB6078A8B1A6
:10289000E07870B10021E180A17841F08002A16868
:1028A0000A70E288521C92B2E2808854E088401C90
:1028B000E080D4E90213E28820799847002038BDEF
:1028C0008C0100202DE9F0411F4615460E460024DC
:1028D000FDF7C7FE3B4608222946304601F0D8FDE9
:1028E00001280DD1B5F5964F01D9232003E0074902
:1028F0006800B1FBF0F080B201F03AFE012800D090
:102900000324FDF7B2FE2046BDE8F081A07F17004A
:102910002DE9F0411646884607460025FDF7A1FE41
:102920000C4CA088042804D3A1880B4800F0BAFE00
:1029300028B10525FDF799FE2846BDE8F081064837
:1029400000783870A088C01E30800348401CC8F84A
:102950000000EFE73C020020185000202DE9F04174
:1029600090460E4607460025FDF77BFE144C607826
:10297000012806D05FF00505FDF777FE2846BDE883
:10298000F081701E0126A06066800770628802EBED
:1029900008016180618800F085FE6188094A53184A
:1029A000491C61801870010A60880244401C6080E4
:1029B000117026700121002000F0D8FFDCE7000034
:1029C0003C0200201850002010B5FDF74AFE0649D1
:1029D000002048700146012000F0C8FF00F0FCFF15
:1029E000BDE81040FDF741BE3C02002010B5FDF7E8
:1029F00038FE0021084600F0B9FF00F0DBFFBDE81B
:102A00001040FDF732BE00002DE9F04704460120DA
:102A1000244F00EBD206A7F10A00491E458888B270
:102A200081184FF00009402936D8401BC0F3CC056F
:102A300000F0070A02F007086BB1012B2ED120E04D
:102A400078196D1CADB20822514601F01DFE761EAC
:102A500004F8010BB6B2002EF2D114F8012DC8F122
:102A600008018A40D0B2C840207017E078196D1C68
:102A700014F8013BADB20822514601F016FE761E55
:102A8000B6B2012EF2D85FEA080207D0237878198F
:102A9000514601F00AFE01E04FF001094846BDE849
:102AA000F0870000A60000202DE9F04704461746F5
:102AB0000120DFF8649000EBD705A9F10800491E5A
:102AC000028888B2C1194FF0000810291FD8801A57
:102AD000C0F3CC0600F0070A0CE000BF09EB0600CB
:102AE000761CB6B20822514601F0CEFD6D1E04F8E8
:102AF000010BADB2002DF1D107F0070014F8012D44
:102B0000C0F108018A40D0B2C840207001E04FF007
:102B100001084046BDE8F087A4000020F0B51A4C3B
:102B2000491EA4F1120689B20025F6888F18642F79
:102B300027D8891B89B283B1012B23D11EE000BFA6
:102B400034F811301B0A00F8013B14F81130491C0D
:102B5000521E00F8013B89B292B2002AF0D111E076
:102B600010F8013B1B0224F8113010F8016B3343BD
:102B700024F81130491C521E89B292B2002AEFD1BA
:102B800000E001252846F0BDAE00002070B5114DD3
:102B9000491E89B200240E4BAD888E18642E13D8BE
:102BA000491B89B20DE000BF33F811502D0A00F81F
:102BB000015B13F81150491C521E00F8015B89B2E9
:102BC00092B2002AF0D100E00124204670BD00003E
:102BD000204E00209C000020FDF78CFEFEF774FDC7
:102BE000FEF78AFCFEF7AEFCFEF7C8FCFEF7E2FC3F
:102BF00000F012F8FEF74CFC00F020F8FEE710B5EC
:102C0000EFF3058111B16FF0050403E0002408B172
:102C100000F0D4FF204610BDEFF3058010B16FF037
:102C2000050070470448016811B14FF0FF3070474C
:102C300001210160002070475C00002010B5EFF317
:102C4000058010B16FF0050010BD0848016801292A
:102C500002D04FF0FF3010BD054A002182F8141D4C
:102C60000221016001F0BAF8002010BD5C000020D4
:102C70000BE000E02DE9FF414FEA01034FF00005B2
:102C8000EFF30581039549BB40B380271821002449
:102C90004AB3166806B1344696691EB13146761EAF
:102CA000382E02D21679F60703D0002004B0BDE812
:102CB000F081566906B1B708D2F808C0BCF1000F20
:102CC0000DD0D5685C2D18D312693AB136B18DE8B4
:102CD00006103A46214602F0F4F803900DE0D6685B
:102CE0005EB912694AB903AACDE90012BAB2214607
:102CF00002F0BAF8012800D003950398D6E7000047
:102D00002DE9F041134C0F460546E6682068001D8A
:102D100000F0E4FC681C07D137B12168BDE8F04140
:102D20000D48091D00F038BD20683544B5424560A6
:102D3000216805D2A06BBDE8F041091D00F014BD6B
:102D4000606B091D00F010FDA06A854200D2A562EB
:102D5000BDE8F0810C000020200800202DE9F041A2
:102D6000054600F053FE2D4CA068401CA060206872
:102D70002B4F10B1606930B32BE02560A0680128AB
:102D800027D1002606EB860007EB800000F0DEFC72
:102D9000761C382EF6D3234800F0D8FC2148143096
:102DA00000F0D4FC1F48283000F0D0FC1D483C3017
:102DB00000F0CCFC1B48503000F0C8FC19486063A0
:102DC0001430A06305E02068E96AC06A884200D830
:102DD0002560606A401C60626864E86A2169884214
:102DE00000D9206100EB800007EB8000291D00F076
:102DF000D3FC00F02BFE606900280CD02068E96A43
:102E0000C06A884207D208494FF080500860BFF37B
:102E10004F8FBFF36F8FBDE8F08100000C000020E2
:102E200070030020D007002004ED00E038B500F06A
:102E3000EDFD104C2068C8B90F4800F087FC0E4823
:102E4000143000F083FC0C48E060143020610A4B21
:102E50000020F03B009003F1500210210A2001F005
:102E6000EAFC206010B105A100F072FEBDE8384018
:102E700000F0ECBD4800002024090020546D725180
:102E80000000000030B4026C0B46002A0BD0C16871
:102E90001144C1608468A14201D30168C16030BCA3
:102EA0001846FDF7D8BA30BC70472DE9F041856B64
:102EB000174604460026026C82B1C7B1E068FDF7F0
:102EC000CAFAE168206C091AE1602268914202D2D4
:102ED000A168081AE060022F16D017E02068A8B990
:102EE000A06802F099F806460020A0600EE0606835
:102EF000FDF7B1FA216C606808446060A1688842FF
:102F000004D32068606001E005B16D1E6D1CA563EF
:102F10003046BDE8F08110B5044690F8590058B12C
:102F200001280CD002280FD0502080F31188BFF365
:102F30004F8FBFF36F8FFEE7206B00F09BFD2046A5
:102F4000BDE8104000F096BD10BD000010484FF4E1
:102F50007051420706D0C01D0D4920F00700411AEC
:102F6000C1F570510B4A00230144C2E9000308393E
:102F7000183A21F0070111604B600B600B1AC0E991
:102F8000001393604FF000405360506170470000A1
:102F90000410002078000020144E154CA6F29C4727
:102FA0004FF08058DFF84C9012E000BF00F02EFD8B
:102FB000F068C568281D00F091FBA068401EA06065
:102FC0006068401E606000F041FD2846FFF7A3FFE7
:102FD00060680028EAD138680128F9D9C9F800806A
:102FE000BFF34F8FBFF36F8FF2E700000C08002094
:102FF0000C00002004ED00E070B51D46049C51B1AA
:10300000C4F80020C4E90F010121204601F046FC6C
:1030100084F84C5070BD2460F4E700002DE9F05FA7
:103020008846DDE90B941546834691009A460A9E30
:10303000A522206BFDF786FA6FF00301206B01EBF0
:103040008501084420F00707780707D0502080F357
:103050001188BFF34F8FBFF36F8FFEE70025B8F1E4
:10306000000F0FD05FF00000221818F8001082F84F
:10307000341018F8001011B1401C1028F4D384F853
:10308000435001E084F83450382E00D33726E662EE
:10309000C4E91365201D00F064FB04F1180000F082
:1030A00060FB2461C6F138006462A061656584F844
:1030B000585052465946384600F0A4FA2060B9F1FB
:1030C000000F01D0C9F80040BDE8F09F2DE9F0479E
:1030D0001E46DDE9089417460D00804615D0002CE9
:1030E00011D0FFF7A3FE04F11801C4F8008081E8B5
:1030F0006002201D00F035FB002F04D014F8280FCB
:1031000040F004002070BDE8F087502080F3118863
:10311000BFF34F8FBFF36F8FFEE7000030B511494B
:1031200000E011460A688242FBD34B685C18844277
:1031300003D1406818444860084643681C1894420C
:1031400009D1084C183C2468A24209D052681A449C
:1031500042600A6812680260814200D0086030BD97
:103160000460F9E77800002070B5002441600B4D41
:103170000061914206D8D11A8269914206D2011D9E
:10318000286907E09A4203D2994201D3012403E05F
:10319000011DE86800F0E8FA204670BD48000020F4
:1031A00010B5044600F032FCA06B28B15FF00004BB
:1031B00000F04CFC204610BD0124F9E730B589B081
:1031C0003C4D6EE00498002806DADDE90601059A18
:1031D00090470498002864DB069C606910B1201DAC
:1031E00000F07CFA03A800F0D7F8024604980A28F9
:1031F00057D2DFE800F00505052D334A05052D33CC
:1032000094F8280040F0010084F828000599A0698E
:10321000059B01442046FFF7A7FF68B3216A2046BB
:10322000884794F8280040073BD500200090059877
:10323000A169002342181946204602F04DF8D8B97A
:10324000502080F31188BFF34F8FBFF36F8FFEE7DD
:1032500014F8280F20F00100207022E094F82800D4
:1032600040F0010084F828000598A06128B1811879
:1032700013462046FFF778FF13E0502080F31188B3
:10328000BFF34F8FBFF36F8FFEE794F828008107DD
:1032900003D4204600F0EEFB03E020F0010084F8A8
:1032A0002800002204A9286801F04CFC002889D1DC
:1032B00009B030BD480000202DE9FC410F4605460D
:1032C00000F0D0FD01A800F067F80446019818B19D
:1032D00001F056FFBDE8FC81254EAFB130690068B2
:1032E000D0B30027291B3A46306800F045FC01F0B6
:1032F00047FF0028EED11F494FF080500860BFF310
:103300004F8FBFF36F8FE5E7A542EBD801F038FF91
:10331000F0682746C068C468201D00F0DFF994F803
:103320002800410719D5A0692B4641193A46204685
:10333000FFF71AFFA8B100200346014600902A4675
:10334000204601F0C9FF60B9502080F31188BFF317
:103350004F8FBFF36F8FFEE707E020F0010084F886
:103360002800216A20468847B4E70127BAE7000011
:103370004800002004ED00E00648416B096829B1CF
:10338000416BC968C9684968816270474FF0FF3175
:10339000FAE700000C00002070B5054601F0CAFDF8
:1033A000064E0446B068844203D200F009F80120BA
:1033B00000E0002028602046B46070BD4800002076
:1033C000F8B5194D20E0C068C4680668201D00F0FB
:1033D00085F9216A2046884794F82800400713D5CC
:1033E000A0693044B04206D924616060211DE868BC
:1033F00000F0BAF908E0002003460146009032468A
:10340000204601F069FF38B1E86801680029DAD187
:103410002969C5E90310F8BD502080F31188BFF376
:103420004F8FBFF36F8FFEE74800002008484068C9
:10343000401C4FF0500080F3118804D0BFF34F8F31
:10344000BFF36F8FFEE7BFF34F8FBFF36F8FFEE7C2
:10345000800000200346002012B1994302D070473B
:103460000B42FCD001207047074CE068016841B175
:10347000C0680021D0F80000FFF71EFFFFF79EFE96
:10348000F3E701210020F7E7480000202DE9F04193
:10349000044600F0BBFA94F9455004F1240609E013
:1034A000606A48B1304601F033FE08B100F0B4FB69
:1034B0006D1E6DB2002DF3DC4FF0FF3684F84560D1
:1034C00000F0C4FA00F0A2FA94F9445004F1100795
:1034D00009E0206948B1384601F01AFE08B100F051
:1034E0009BFB6D1E6DB2002DF3DC84F84460BDE8DB
:1034F000F04100F0ABBA002804D0012803D007281F
:1035000003D0042070470220704706207047000057
:103510002DE9F0410546002700F0A4FC324E30684A
:1035200008B9FFF713FD706905424ED1C5B30835E0
:1035300068070ED005F00700C0F1080005446807D1
:1035400007D0502080F31188BFF34F8FBFF36F8FE8
:10355000FEE72DB37068854237D8234818300146FE
:103560000C6801E020460C466168A94202D221683D
:103570000029F7D131688C4227D0076821680160A3
:1035800060680837411B10290FD96019420708D01D
:10359000502080F31188BFF34F8FBFF36F8FFEE78A
:1035A00013E041606560FFF7B9FD61687068401A1B
:1035B0007060B268904200D2B06070690143002030
:1035C000C4E90001F068401CF06001F0D9FD780703
:1035D00007D0502080F31188BFF34F8FBFF36F8F58
:1035E000FEE73846BDE8F081600000200449086825
:1035F00018B10868026D521C026508687047000027
:103600000C00002010B5031F4FF080741C601B1FBE
:1036100021F001011960191F044B0B6014390A6075
:10362000091F6FF0020244380A6010BD2D340008F3
:1036300008B5074E074D4FF0FF34002300941A469B
:103640000121706800F0C4FC28688047F5E700009D
:103650007C010020B001002008B5074E074D4FF057
:10366000FF34002300941A460121706800F0B0FC7A
:1036700028688047F5E700005802002098020020E3
:103680000148006800470000B401002001480068BC
:10369000004700009C02002001484079704700006C
:1036A0007002002070B5094DFF231A4605F580769B
:1036B00006E000BF10F8014B54402A5D5A40335DCC
:1036C000491E89B2F6D242EA032070BD0C540008AC
:1036D000014880887047000020030020D0E90132B3
:1036E00001699A60D0E901235A604A68824201D197
:1036F00082684A60002202610868401E086008680B
:1037000070470000044908680A688069D26A09683D
:10371000C2F138028A6170470C000020034B03603D
:1037200003F15C0008608020106070474C090020A5
:10373000044B036003F15C0008604FF4807010607C
:1037400070470000A80B002000F0F4BB00F1080156
:103750004FF0FF32C0E90112C16001610021016038
:10376000704700210161704730B50B685A1C02D0C8
:1037700000F1080202E0026904E02246546825686C
:103780009D42FAD953684B6099608A605160086124
:103790000168491C016030BD42684A6093688B60D3
:1037A00093685960916008610168491C0160704725
:1037B00002482021406800F0BDBB000050020020FC
:1037C00002484FF48071406800F0B4BB5002002002
:1037D00002488021406800F0ADBB0000500200208C
:1037E00002484021406800F0A5BB000050020020C4
:1037F0000149016070470000C96B002010B5032229
:103800000021012000F0F6FF0149086010BD000012
:1038100050020020104A30B492686FF02003146800
:10382000236014686FF04003236000281068C268AA
:1038300002D042F0200201E022F02002C2600648DD
:1038400000294FF00101406802D030BC00F072BB8B
:1038500030BC00F041BB00005802002038B5C8243D
:10386000022000F06BF8FDF70BFE0021074D0091E0
:1038700020B105F108032246092102E00023224677
:103880000421686801F028FD38BD000064020020B2
:1038900038B5FDF7F5FD0021054C0B460A460091B1
:1038A00008B1082100E00321606801F015FD38BD72
:1038B0006402002038B56424012000F03FF8FDF7D1
:1038C000DFFD0021074D009120B105F108032246DC
:1038D000092102E0002322460421686801F0FCFC73
:1038E00038BD00006402002038B50E4C322120881B
:1038F00048434FF47A71B0FBF1F500206D1C00F0E5
:103900001DF8FDF7BDFD0021009120B104F1080371
:103910002A46092102E000232A460421606801F0BA
:10392000DBFC38BD64020020034800231A46194618
:10393000006800F0F7BF0000500200200149C87085
:1039400070470000200300200149487170470000C3
:103950007002002001498871704700007002002049
:10396000014988807047000020030020104A30B4CD
:1039700092686FF020031468236014686FF04003AE
:10398000236000281068C26802D042F0200201E0E3
:1039900022F02002C260064800294FF00101406871
:1039A00002D030BC00F0C6BA30BC00F095BA0000BE
:1039B0007C01002038B5FDF763FD0021054C0B4666
:1039C0000A46009108B1082100E00321206801F0B7
:1039D00083FC38BD8801002038B5FDF751FD0A4D44
:1039E000002430B101F0ACFA002302460621009415
:1039F00005E001F09FFA00230246012100942868A7
:103A000001F06AFC38BD000088010020502080F3DE
:103A10001188BFF34F8FBFF36F8F0A494868401C6E
:103A2000486001280CD10848006810F0FF0F07D04B
:103A3000502080F31188BFF34F8FBFF36F8FFEE7E5
:103A4000704700008000002004ED00E0084948684D
:103A500028B1401E486001D180F311887047502082
:103A600080F31188BFF34F8FBFF36F8FFEE7000025
:103A70008000002070B500282AD0164DA0F108045F
:103A800060686969084207D1502080F31188BFF34C
:103A90004F8FBFF36F8FFEE722683AB1502080F35B
:103AA0001188BFF34F8FBFF36F8FFEE788436060CD
:103AB00000F0D8F960686968084468602046FFF73C
:103AC0002DFB2869401C2861BDE8704001F058BBFF
:103AD00070BD0000600000204FF0E0200021016177
:103AE000816105494FF47A720968B1FBF2F1491E10
:103AF00041610721016170478C00002010B5FCF77F
:103B00000FFC114910280ED300F1E02090F8F003CB
:103B10000A78904207D2502080F31188BFF34F8F6C
:103B2000BFF36F8FFEE709480068896800F4E06022
:103B3000884207D9502080F31188BFF34F8FBFF31D
:103B40006F8FFEE710BD0000800000200CED00E04C
:103B500010B5084B002200BF53F832401CB1521C74
:103B6000082AF9D310BD43F8321003EBC2014860B4
:103B700010BD00003003002070B515460E46044607
:103B8000FFF744FF94F944100020491C01D184F848
:103B9000440094F94510491C01D184F84500FFF711
:103BA00055FFA06B28B92A46314604F1240000F0E5
:103BB00051F82046BDE87040FFF768BC10B5020020
:103BC00014D00F48006B38B1502080F31188BFF338
:103BD0004F8FBFF36F8FFEE700F044F900211046CE
:103BE000FFF78EF801F0CCFA002807D105494FF015
:103BF00080500860BFF34F8FBFF36F8F10BD000080
:103C00000C00002004ED00E002490A6A0260C96865
:103C1000416070470C00002001490120C8617047D5
:103C20000C00002010B50C4650B109490968183144
:103C3000FFF79AFD2046BDE810400121FFF760B86C
:103C4000502080F31188BFF34F8FBFF36F8FFEE7D3
:103C50000C00002070B514460D4668B10A49096889
:103C60001831FFF799FD0CB14FF0FF35214628467A
:103C7000BDE87040FFF744B8502080F31188BFF3CF
:103C80004F8FBFF36F8FFEE70C00002010B5144676
:103C9000030011D01048026BB2B1026841F000413C
:103CA0009161016818461831FFF776FD2046BDE89E
:103CB00010400121FFF724B8502080F31188BFF392
:103CC0004F8FBFF36F8FFEE7502080F31188BFF353
:103CD0004F8FBFF36F8FFEE70C00002070B504001C
:103CE0003ED0226DA2B1E06C884200D30146E06A6A
:103CF000884235D0012A33D11A4D2A6894420FD117
:103D0000502080F31188BFF34F8FBFF36F8FFEE712
:103D1000502080F31188BFF34F8FBFF36F8FFEE702
:103D2000E162A269002A02DBC1F13801A1610E4EF5
:103D300000EB8000616906EB8000814210D1201DFC
:103D4000FFF7CCFCE06A2969884200D9286100EBC2
:103D5000800006EB8000211DBDE87040FFF71CBD10
:103D600070BD00000C0000207003002070B5194DDC
:103D70002A6BF2B141F000410160C4680CB3FFF757
:103D8000ADFC201DFFF7AAFCE06A2969884200D932
:103D90002861114900EB800001EB8000211DFFF735
:103DA000FBFCE06A2968C96A884201D90120E86100
:103DB00070BD502080F31188BFF34F8FBFF36F8F1A
:103DC000FEE7502080F31188BFF34F8FBFF36F8F52
:103DD000FEE700000C0000207003002030B587B023
:103DE0000024039405AA04A903A80494FFF796FCF1
:103DF000DDE903010094CDE90110002315A1174866
:103E0000059A01F05EF8164D0028E8621FD001F017
:103E100033FA012809D0401C19D1502080F31188B1
:103E2000BFF34F8FBFF36F8FFEE7502080F31188F1
:103E3000BFF34F8FBFF36F8F4FF0FF30A8620120A9
:103E40006861EC6007B0BDE8304000F043BC07B0EB
:103E500030BD000049444C4500000000992F000887
:103E60000C0000200248016B491C016370470000F0
:103E70000C000020164810B5016B11B10121C16181
:103E800010BD0021C1610169124A01E0B9B1491EAA
:103E900001EB810352F82330002BF7D001EB8103B3
:103EA00002EB830202F1080453685B685360A3428B
:103EB00001D15B685360DA680260016110BD502077
:103EC00080F31188BFF34F8FBFF36F8FFEE70000C1
:103ED0000C0000207003002070B50E46040009D0CD
:103EE000300E0FD0502080F31188BFF34F8FBFF3F7
:103EF0006F8FFEE7502080F31188BFF34F8FBFF321
:103F00006F8FFEE7FFF782FD256825EA0600206037
:103F1000FFF79CFD284670BD70B52020FFF7F8FA2A
:103F2000040005D00025201D2560FFF70FFC257734
:103F3000204670BD2DE9F0410027884604000AD0D4
:103F40005FEA18600FD0502080F31188BFF34F8FC5
:103F5000BFF36F8FFEE7502080F31188BFF34F8FC0
:103F6000BFF36F8FFEE7261D04F10C05FFF77AFF04
:103F70002168F06841EA0801216017E0D0E90016E5
:103F800001F07F425301236821F07F4102D40B42AC
:103F900003D10AE031EA030307D1D20100D50F4370
:103FA000216841F00071FFF7E1FE3046A842E5D1FB
:103FB0002068B843206001F0E3F82068BDE8F08194
:103FC00013460A460146014801F0BAB949370008CC
:103FD0002DE9F0479A46DDF8209090460D46040002
:103FE0004FF0000709D0280E0FD0502080F3118821
:103FF000BFF34F8FBFF36F8FFEE7502080F3118820
:10400000BFF34F8FBFF36F8FFEE71DB100F084FF4A
:1040100040B112E0502080F31188BFF34F8FBFF3FF
:104020006F8FFEE7B9F1000F07D0502080F31188A1
:10403000BFF34F8FBFF36F8FFEE7FFF713FF2668C5
:10404000524629463046FFF705FA30B1B8F1000F65
:104050001AD02068A843206016E0B9F1000F13D0F1
:10406000B8F1000F01D04FF08077BAF1000F01D006
:1040700047F0806745EA07014A46201DFFF706FE24
:1040800001F07EF818B10AE001F07AF81FE011495A
:104090004FF080500860BFF34F8FBFF36F8FFFF773
:1040A00031FB0646800110D4FFF7B0FC266852466B
:1040B00029463046FFF7CEF928B1B8F1000F02D0FB
:1040C0002068A8432060FFF7C1FC26F07F463046F9
:1040D000BDE8F08704ED00E038B504464FF0FF304E
:1040E00000900B48002301221F214068FFF770FF5A
:1040F000042809D004DC012806D0022805D103E0F9
:10410000082801D0102800D12080012038BD0000EF
:104110005002002010B5FFF7FFFE03490028486059
:1041200000D0012010BD00005002002038B5094C1D
:104130000546606860B1FDF7A3F928B16A462946D3
:104140006068FFF73DFF03E029466068FFF7F2FE75
:10415000012038BD5002002010B50146012203485D
:10416000FCF7A8FA002800D0012010BDB86B002091
:104170001CB5274C012804D0022804D0032804D001
:1041800005E0244802E0244800E02448A060A0683C
:104190000022C260416033B14FF48051012B05D041
:1041A000022B0BD106E08260026107E081604FF4D0
:1041B000C06102E081604FF480610161FDF756F853
:1041C00008B1FCF750FAA0680168CA6822F0200222
:1041D000CA600168CA6822F04002CA60104A03211E
:1041E000FDF70EF90F494FF4807201F58070FCF76E
:1041F0005AFAFFF791FE064960600C20CDE90001F4
:104200000023802208A10C4800F02EFE01201CBDD6
:1042100058020020044C00207C4C0020F44C00206C
:1042200039160008B86A00204D61737465722074F5
:1042300072616E73000000005936000804498968F5
:104240000A685060086801684906FCD5012070477B
:104250005802002038B50A4C3221022320804843FE
:104260004FF47A71B0FBF1F106480090002206A0ED
:10427000491C00F0E7FF6060002800D0012038BD35
:10428000640200208D360008536C617665207469E5
:104290006D657200F8B500266846FFF75DFF154CA6
:1042A000A07830B1144D012807D0022813D003287C
:1042B00001D1FFF719FB3046F8BDFFF7E9FA0020FE
:1042C000607020819DF8001020892A18401C2081F0
:1042D000117002200BE02089FF2807D89DF80010FC
:1042E00020892A18401C20811170E2E70320A07069
:1042F000DFE7000020030020C56C002070B5174DDB
:104300000024A87820B1022803D0032804D109E0B2
:104310000120FFF70BFF04460120A87068780228EF
:104320000ED104E00120FFF715FB1020F1E72878FB
:1043300030B90020FFF70EFB1020FFF7F7FE044610
:1043400000206870FFF7A4FAE878022803D104205F
:10435000FFF7ECFE0446204670BD0000200300205D
:1043600070B5184C0025607810B1012822D104E006
:1043700000210120FFF74EFA1CE0E08850B1E06810
:104380000078FFF75BFFE068401CE060E088401EBB
:10439000E0800FE00C48007870B100202070002110
:1043A0000120FFF737FA022060702078012805D03D
:1043B000FFF780FA284670BD0120EFE7FFF74EFABD
:1043C000F8E7000020030020C86B002001480078B7
:1043D0007047000020030020064A10B51268411CF7
:1043E00005D00146104600F049FCC0B210BD4FF0A8
:1043F000FF31F7E75002002038B504464FF0FF3098
:1044000000900A48002301220F210068FFF7E0FD19
:10441000012807D0022805D0042803D0082801D09D
:10442000002038BD2070012038BD00007801002038
:1044300010B5FFF771FD03490028086000D0012086
:1044400010BD00007801002038B50A4C05462068F0
:1044500000280DD0FDF714F828B16A4629462068D7
:10446000FFF7AEFD03E029462068FFF763FD01205A
:1044700038BD00007801002010B501460122034834
:10448000FCF718F9002800D0012010BDE84F0020EB
:104490001CB5274C012804D0022804D0032804D0DE
:1044A00005E0244802E0244800E02448A060A06819
:1044B0000022C260416033B14FF48051012B05D01E
:1044C000022B0BD106E08260026107E081604FF4AD
:1044D000C06102E081604FF480610161FCF7C6FEBB
:1044E00008B1FCF7C0F8A0680168CA6822F0200291
:1044F000CA600168CA6822F04002CA60104A0321FB
:10450000FCF77EFF0F494FF4807201F58070FCF7D5
:10451000CAF8FFF701FD064960600C20CDE90001F3
:104520000023802208A10B4800F09EFC01201CBD46
:104530007C010020044C00207C4C0020F44C002026
:1045400071160008E84E0020736C61766520747265
:10455000616E730031360008044989680A6850604A
:10456000086801684906FCD5012070477C010020DD
:10457000322148434FF47A71B0FBF1F108B5074896
:1045800000900223002206A0491C00F05BFE0749B0
:104590000028086000D0012008BD00008136000816
:1045A000536C6176652074696D6572008801002026
:1045B00038B500246846FFF75FFF1349487830B1EB
:1045C000124A012807D0022810D0032801D1FFF792
:1045D00003FA204638BD002088809DF80030888886
:1045E0000244401C8880137002200BE08888FF285A
:1045F00007D89DF8003088880244401C88801370DA
:10460000E5E703204870E2E73C0200201850002054
:1046100070B5084D0024687810B1022804D100E07C
:104620000120FFF711FF0446FFF7C4F9012068706D
:10463000204670BD3C02002070B5124C0025207849
:1046400010B101281CD104E000210120FFF78EF9F0
:1046500016E0608850B1A0680078FFF77DFFA06881
:10466000401CA0606088401E608009E00820FFF7C1
:10467000EBFE054600210120FFF778F900202070AD
:10468000284670BD3C02002010B5CB085C4201EB0F
:10469000C40401219140C25C1844407842EA0020E1
:1046A000E040491E0840C0B210BD70B5CC0865425C
:1046B00001EBC505AB4001219140491EA9400519F8
:1046C000025D6E7842EA06228A431A430255100AB6
:1046D000687070BD1CB537480168374A914207D1F0
:1046E000502080F31188BFF34F8FBFF36F8FFEE729
:1046F00000683149491E884207D1502080F3118853
:10470000BFF34F8FBFF36F8FFEE72C4908780190FE
:10471000FF20087008788DF800009DF800009DF8D3
:10472000002000F0F000904207D0502080F3118864
:10473000BFF34F8FBFF36F8FFEE79DF80000204C53
:1047400000F0500020700720A06005E09DF80020D8
:1047500052008DF80020401E9DF800201206F5D46E
:10476000A060032807D0502080F31188BFF34F8F3B
:10477000BFF36F8FFEE74FF44070A06001980870A0
:104780000C482030016841F470010160016841F07B
:1047900070410160FFF7A0F900206060FBF788FD21
:1047A0000848016841F040410160FBF76DFD0020C1
:1047B0001CBD000000ED00E071C20F4100E400E00C
:1047C0008000002034EF00E010B5502080F3118805
:1047D000BFF34F8FBFF36F8F00F0BAFB18B10449DE
:1047E0004FF080500860002080F3118810BD000059
:1047F00004ED00E0F8B517460E46050013D005FBA2
:1048000006F05030FEF784FE04000AD0002084F841
:10481000460004F150023B46314628460094FEF71C
:10482000EBFB2046F8BD502080F31188BFF34F8F7B
:10483000BFF36F8FFEE738B5049D18B153B1CAB10D
:1048400081B120E0502080F31188BFF34F8FBFF378
:104850006F8FFEE7502080F31188BFF34F8FBFF3B7
:104860006F8FFEE7502080F31188BFF34F8FBFF3A7
:104870006F8FFEE739B1502080F31188BFF34F8F5F
:10488000BFF36F8FFEE750241C46012384F84630A7
:104890002B460094FEF7B0FB204638BD70B50D46A0
:1048A000040025D0FFF7B2F8D4E90F20216802FBFD
:1048B0000011A1600021A163216861600A46D4E96A
:1048C0000F01401E00FB0121E16021464FF0FF3047
:1048D00001F8440F487004F110008DB1FEF736FF67
:1048E00004F12400FEF732FFFFF7B0F8012070BD9D
:1048F000502080F31188BFF34F8FBFF36F8FFEE717
:1049000021690029F0D000F003FC0028ECD0044914
:104910004FF080500860BFF34F8FBFF36F8FE3E716
:1049200004ED00E02DE9FF4782B01D468A464FF0B6
:104930000008040003D0BAF1000F08D011E05020A5
:1049400080F31188BFF34F8FBFF36F8FFEE7206CAA
:1049500038B1502080F31188BFF34F8FBFF36F8FB2
:10496000FEE7022D0AD1E06B012807D0502080F32A
:104970001188BFF34F8FBFF36F8FFEE700F0CCFAC3
:104980003F4F4FF000094FF0805648B9049838B1B6
:10499000502080F31188BFF34F8FBFF36F8FFEE776
:1049A000FFF734F8A06BE16B884207D3022D05D0E6
:1049B0000498D0B1B8F1000F1AD01EE02A46514633
:1049C0002046FEF772FA616A19B104F1240000F082
:1049D0009FFB20B13E60BFF34F8FBFF36F8FFFF798
:1049E00035F8012006B0BDE8F087FFF72FF822E088
:1049F0006846FFF709F94FF00108FFF727F8FFF7BE
:104A000031FAFFF703F894F94400401C01D184F80F
:104A1000449094F94500401C01D184F84590FFF77B
:104A200015F804A9684600F0E5F930B12046FEF714
:104A30002DFD00F0A5FB0020D4E7FEF7E7FFA06BFB
:104A4000E16B884213D1FFF701F804F110000499DB
:104A5000FFF7E8F82046FEF719FD00F091FB00286B
:104A60009ED13E60BFF34F8FBFF36F8F98E7FEF785
:104A7000EDFF2046FEF70AFD00F082FB90E7000004
:104A800004ED00E02DE9F0471F46904689460400FA
:104A900003D0B9F1000F08D011E0502080F3118845
:104AA000BFF34F8FBFF36F8FFEE7206C38B15020FC
:104AB00080F31188BFF34F8FBFF36F8FFEE7022F94
:104AC0000AD1E06B012807D0502080F31188BFF392
:104AD0004F8FBFF36F8FFEE7FFF710F85020EFF313
:104AE000118680F31188BFF34F8FBFF36F8FA06BD8
:104AF000E16B884206D3022F04D0002086F3118890
:104B0000BDE8F08794F94550A06B3A4649462046E7
:104B1000FEF7CBF9681C04D06D1C84F845500120C9
:104B2000ECE7606A0028FAD004F1240000F0F0FA03
:104B30000028F4D0B8F1000FF1D00121C8F800101E
:104B4000EDE700002DE9F747002683B08A46040010
:104B500003D0BAF1000F08D011E0502080F3118883
:104B6000BFF34F8FBFF36F8FFEE7206C38B150203B
:104B700080F31188BFF34F8FBFF36F8FFEE700F014
:104B8000CBF9DFF8F4804FF000094FF0805748B9B7
:104B9000059838B1502080F31188BFF34F8FBFF3D1
:104BA0006F8FFEE7FEF732FFA56BC5B15146204679
:104BB000FEF768F96D1EA563206950B104F110007D
:104BC00000F0A6FA28B1C8F80070BFF34F8FBFF30A
:104BD0006F8FFEF73BFF012006B0BDE8F087059818
:104BE00008B11EB106E0FEF731FF27E06846FFF787
:104BF0000BF80126FEF72AFFFFF734F9FEF706FF50
:104C000094F94400401C01D184F8449094F9450083
:104C1000401C01D184F84590FEF718FF05A96846AD
:104C200000F0E8F8002820460AD0FEF72FFC00F03C
:104C3000A7FA2046FEF7B4FA0028B3D00020CBE74D
:104C4000FEF7AEFA90B104F124000599FEF7EAFFF1
:104C50002046FEF71BFC00F093FA0028A2D1C8F80A
:104C60000070BFF34F8FBFF36F8F9BE72046FEF7B7
:104C70000DFC00F085FA95E704ED00E02DE9F34323
:104C8000002683B00400354609D0206C78B150204E
:104C900080F31188BFF34F8FBFF36F8FFEE7502073
:104CA00080F31188BFF34F8FBFF36F8FFEE700F0E3
:104CB00033F9DFF83C814FF000094FF0805748B9D5
:104CC000049838B1502080F31188BFF34F8FBFF3A1
:104CD0006F8FFEE7FEF79AFEA06BC8B1401EA0637F
:104CE000206810B9FEF782FCA060206950B104F181
:104CF000100000F00DFA28B1C8F80070BFF34F8F14
:104D0000BFF36F8FFEF7A2FE012005B0BDE8F08370
:104D1000049808B166B10FE03DB1502080F31188CE
:104D2000BFF34F8FBFF36F8FFEE7FEF78FFE5DE09F
:104D30006846FEF769FF0126FEF788FEFFF792F846
:104D4000FEF764FE94F94400401C01D184F84490BD
:104D500094F94500401C01D184F84590FEF776FE99
:104D600004A9684600F046F80028204612D0FEF755
:104D70008DFB00F005FA2046FEF712FA0028A9D0B4
:104D80009DB3FEF743FE606A50B3206B0068C0F12C
:104D9000380126E0FEF704FAE0B1206838B9FEF7E2
:104DA00035FEA06800F078F90546FEF74FFE04F1E5
:104DB00024000499FEF736FF2046FEF767FB00F05B
:104DC000DFF9002886D1C8F80070BFF34F8FBFF31A
:104DD0006F8F7FE72046FEF759FB00F0D1F979E7A6
:104DE0000021A068FEF77AFF9FE7FFE700208CE72D
:104DF00004ED00E02DE9F0410C46050011D0C4B1EE
:104E0000FEF704FE174BDA686E682068911B471C9A
:104E100017D02F681B6A9F4219D0964217D80124D9
:104E200010E0502080F31188BFF34F8FBFF36F8FD6
:104E3000FEE7502080F31188BFF34F8FBFF36F8FD1
:104E4000FEE70024FEF702FE2046BDE8F08188421E
:104E500005D9401A20602846FEF7D6FEF1E700206B
:104E60002060DCE70C0000202DE9FF5F8346DDE9D0
:104E70000E87994616468A469000FEF749FB0500C4
:104E80001CD05C20FEF744FB040014D000202563F6
:104E900084F85900CDE90240CDE900874B463246FF
:104EA00051465846FEF7BAF82046FDF757FF012055
:104EB00004B0BDE8F09F2846FEF7DCFD4FF0FF3060
:104EC000F6E7F0B585B0DDE90B640A9DA6B1DCB16B
:104ED0005C2700972663022684F85960002604AFF9
:104EE000CDE90246CDE90057FEF798F82046FDF7D8
:104EF00035FF049805B0F0BD502080F31188BFF352
:104F00004F8FBFF36F8FFEE7502080F31188BFF300
:104F10004F8FBFF36F8FFEE70548416919B1006BF2
:104F200018B1002070470120704702207047000030
:104F30000C0000200148C068704700000C000020F1
:104F400010B5FEF7DBFD0148C06810BD0C00002065
:104F50002DE9F0412E4C0027206B28B1A069401CA0
:104F6000A0613846BDE8F081E668761CE66013D1A2
:104F7000606B006838B1502080F31188BFF34F8F09
:104F8000BFF36F8FFEE7606BA16B6163A063206A64
:104F9000401C2062FEF7F0F9A06ADFF878808642B4
:104FA00009D3606B0068A0B1606BC068C5686868B1
:104FB000864211D2A0622068C06A00EB800158F8D6
:104FC0002100012800D90127E0690028C9D0012764
:104FD000C7E74FF0FF30EDE7281DFEF77FFBA86A1B
:104FE00018B105F11800FEF779FBE86A21698842DB
:104FF00000D9206100EB800108EB8100291DFEF73C
:10500000CBFBE86A2168C96A8842CAD30127C8E78E
:105010000C0000207003002070B504004FF0000168
:1050200033D01B4D2868844207D0502080F311886C
:10503000BFF34F8FBFF36F8FFEE7206D38B1401E77
:105040002065E36CE26A9A421FD040B11DE0502017
:1050500080F31188BFF34F8FBFF36F8FFEE7201DE2
:10506000FEF73CFBE06CE062C0F13800A061E06A52
:105070002969884200D92861064900EB800001EBCC
:105080008000211DFEF788FB0121084670BD00004D
:105090000C0000207003002070B504004FF00000E9
:1050A0002BD0194DE16A2A68D26A914226D2A069B2
:1050B000002804DB2868C06AC0F13800A061134EE4
:1050C00001EB8101606906EB8101884211D1201D4D
:1050D000FEF704FB2868C06AE0622969884200D9AB
:1050E000286100EB800006EB8000211DFEF754FBD9
:1050F00002E02868C06AE062012070BDE16C2A68A5
:10510000D26A9142F8D370BD0C00002070030020D9
:1051100070B5C068C46854B104F118000646FEF7C3
:10512000DDFA144D286B50B13146134815E050207C
:1051300080F31188BFF34F8FBFF36F8FFEE7201D01
:10514000FEF7CCFAE06A2969884200D928610B4948
:1051500000EB800001EB8000211DFEF71DFBE06AE3
:105160002968C96A884202D90120E86170BD00201F
:1051700070BD00000C000020F80700207003002024
:105180002DE9F0472C4D00242746286B38B1FEF757
:105190003DFC286B401E2863286B40B146E0502040
:1051A00080F31188BFF34F8FBFF36F8FFEE7A968BD
:1051B000224E0120D1B3A6F5916980463068E0B156
:1051C000F068C46804F11800FEF788FA201DFEF7A5
:1051D00085FAE06A2969884200D9286100EB8001DC
:1051E00009EB8100211DFEF7D7FAE06A2968C96A38
:1051F0008842E3D3C5F81C80E0E70CB1FEF7BCF8A9
:10520000AC694CB14FEA0806FFF7A2FE00B1EE61AF
:10521000641EF9D10020A861E86938B10849012766
:1052200038070860BFF34F8FBFF36F8FFEF70EFC98
:105230003846BDE8F08700000C000020F807002089
:1052400004ED00E02DE9FC4781461E4617468846DE
:105250002C200A9DFEF75CF904000AD0002084F897
:105260002800CDE9005433463A4641464846FDF70A
:105270002DFF2046BDE8FC8710B586B0FDF7D6FDB2
:10528000114C2068B8B100200390049005AA04A92D
:1052900003A8FEF74DFADDE9032120208DE8070081
:1052A00000230AA10B48059AFFF70BFE606010B1BE
:1052B00006B0012010BD502080F31188BFF34F8F3E
:1052C000BFF36F8FFEE7000048000020546D72208E
:1052D00053766300693400082DE9FF411E461346EA
:1052E00002000A9D4FF0000016D0144C2768002FD2
:1052F0000FD0CDE900130292062917DAFFF70CFE52
:1053000002284FF000030FD0002269462068FFF703
:1053100009FB04B0BDE8F081502080F31188BFF391
:105320004F8FBFF36F8FFEE72A46EEE7002332462A
:1053300069463846FFF7A6FBEBE70000480000206F
:105340001FB51C466FF00103CDE90030CDE9021214
:1053500004480023224669460068FFF793FB04B027
:1053600010BD0000480000204FF04070E1EE100A30
:10537000704700000000000000000102030406075F
:10538000080900000000010203040000285600087C
:10539000000000000000000000000000000000000D
:1053A00000020000180000000000000000000000E3
:1053B0000C56000800000000000000000000000083
:1053C00000000000000200001800000000000000C3
:1053D0000000000018560008000000000000000057
:1053E00000000000000000000002000008000000B3
:1053F00000000000000000000100020003000400A3
:10540000050006000700080009000A0000C18140ED
:1054100001C0804101C0804100C1814001C0804184
:1054200000C1814000C1814001C0804101C0804174
:1054300000C1814000C1814001C0804100C1814064
:1054400001C0804101C0804100C1814001C0804154
:1054500000C1814000C1814001C0804100C1814044
:1054600001C0804101C0804100C1814000C1814034
:1054700001C0804101C0804100C1814001C0804124
:1054800000C1814000C1814001C0804101C0804114
:1054900000C1814000C1814001C0804100C1814004
:1054A00001C0804101C0804100C1814000C18140F4
:1054B00001C0804101C0804100C1814001C08041E4
:1054C00000C1814000C1814001C0804100C18140D4
:1054D00001C0804101C0804100C1814001C08041C4
:1054E00000C1814000C1814001C0804101C08041B4
:1054F00000C1814000C1814001C0804100C18140A4
:1055000001C0804101C0804100C1814000C0C10193
:10551000C30302C2C60607C705C5C404CC0C0DCD23
:105520000FCFCE0E0ACACB0BC90908C8D81819D993
:105530001BDBDA1A1EDEDF1FDD1D1CDC14D4D515C3
:10554000D71716D6D21213D311D1D010F03031F1B3
:1055500033F3F23236F6F737F53534F43CFCFD3DE3
:10556000FF3F3EFEFA3A3BFB39F9F83828E8E929D3
:10557000EB2B2AEAEE2E2FEF2DEDEC2CE42425E583
:1055800027E7E62622E2E323E12120E0A06061A1F3
:1055900063A3A26266A6A767A56564A46CACAD6DA3
:1055A000AF6F6EAEAA6A6BAB69A9A86878B8B97913
:1055B000BB7B7ABABE7E7FBF7DBDBC7CB47475B543
:1055C00077B7B67672B2B373B17170B05090915133
:1055D0009353529296565797559594549C5C5D9D63
:1055E0005F9F9E5E5A9A9B5B995958988848498953
:1055F0004B8B8A4A4E8E8F4F8D4D4C8C4484854503
:10560000874746868242438341818040536C61765E
:10561000655F5461736B00004D617374657253650F
:105620006E645461736B00004D61737465725461F4
:10563000736B000054560008000000203003000087
:10564000C4010008E456000830030020F870000090
:10565000200200083201027F101AAA0151031F2400
:10566000F41201120212031204120512061207129A
:10567000081209120A120B02C70C022B0232111374
:105680006D1D2B080408121C3308031A0908321078
:10569000137D1E3308061AE72032171ACF1832017D
:1056A00013251B3308051A9118320F1A192829746B
:1056B0001A97180993E5D9E84B8120E81A2F082991
:1056C000E84B2B22E84B9921E81AD11829E84B6DB9
:1056D0001FE81A431829E81ACB0829771ACF1801AE
:0456E0004000000086
:040000050800018965
:00000001FF
